:100A0B006972656365697665004C3A20204D3A2022
:100A1B0020483A20204E3A202000303132333435F2
:050A2B003637383900E8
:100A300002090000021D00000A0B30313233343548
:0B0A40003637383902180000011F0093
:100765007520007521A0752600752732752800753E
:100775002946752200752378E4F524F525D293D210
:1007850094C2A3D295C2A1120971120A4CD2A3C276
:10079500A0120AAF30A0FDD28C20A0FDC28C120998
:1007A500B6C3E521951EF51EE520951DF51DFCAD8D
:1007B5001EE4120131852640852741852842852979
:1007C500438522448523451205D9E508640170084F
:1007D500D2A37F32FE1209EDE5087008C2A37F0A95
:1007E500FE1209EDC3E51E9529E51D95285009D290
:1007F500A37F327E001209EDC3E51E9529E51D95FF
:10080500284009C2A37F0A7E001209EDC3E51E95A3
:1008150027E51D9526500DD294C293C2957F0A7E79
:10082500001209EDD3E51E9523E51D9522400DD255
:1008350094C293C2957F0A7E001209EDD3E51E95F9
:1008450023E51D95225018C3E51E9527E51D952620
:10085500400DD295D293C2947F0A7E001209ED20F5
:1008650090127F0A7E001209ED2090080525E525E6
:1008750070020524E52564014524701620910805BC
:1008850027E52770020526209208E527152770021F
:100895001526E5256402452470162091080529E5ED
:1008A5002970020528209208E529152970021528C6
:1008B500E5256403452470162091080523E523707A
:1008C500020522209208E523152370021522E5254D
:1008D500640445246003020794F524F52502079472
:0C0AAF00D2A17F0F7E00120A90C2A1228B
:100A4C00759850758921E4F58CF58A758DFDF58BBB
:090A5C00D2A9D28ED2AFD2AC2295
:080003008F993099FDC299228A
:100A7D001202E1FF600C120003740129F9E43AFA45
:030A8D0080EE22D6
:030023000203A530
:1003A500C0E0C0F0C083C082C0D075D000C000C01E
:0D03B50001C002C003C004C005C006C0079F
:1003C200782A7C007D007BFF7A0A790B7E007F0908
:1003D2001202BBAE1DAF1E7C037DE812030C7E0031
:1003E2007F64CFCDCFCECCCE12030C8E338F34AE02
:1003F2001DAF1E7C007D6412030C7E007F0ACFCDF0
:10040200CFCECCCE12030C8E358F36AE1DAF1E7CF6
:10041200007D0A12030C8C378D38740B2534F8E6F4
:10042200F539740B2536F8E6F53A740B2538F8E6FB
:10043200F53B2098030205B9C298AB99EBFF7E0009
:10044200F47002F508EF64FE4E7003750801E51BB7
:10045200700DE51C7009E51A64016003020593EB57
:10046200700EAE18AF19FC7D0A1202FA8E188F199F
:10047200EB64017013AE18AF19FC7D0A1202FAEF99
:100482002401F519E43EF518EB64027013AE18AFBF
:1004920019FC7D0A1202FAEF2402F519E43EF5185E
:1004A200EB64037013AE18AF19FC7D0A1202FAEF67
:1004B2002403F519E43EF518EB64047013AE18AF8B
:1004C20019FC7D0A1202FAEF2404F519E43EF5182C
:1004D200EB64057013AE18AF19FC7D0A1202FAEF35
:1004E2002405F519E43EF518EB64067013AE18AF57
:1004F20019FC7D0A1202FAEF2406F519E43EF518FA
:10050200EB64077013AE18AF19FC7D0A1202FAEF02
:100512002407F519E43EF518EB64087013AE18AF22
:1005220019FC7D0A1202FAEF2408F519E43EF518C7
:10053200EB64097013AE18AF19FC7D0A1202FAEFD0
:100542002409F519E43EF518EB640A700CF51B85D5
:100552001826851927F518F519EBFF7E00640B7034
:100562000CF51C851828851929F518F519EF640C66
:100572004E700CF51A851822851923F518F519EF16
:10058200640D4E700CF51A851820851921F518F5A1
:1005920019EBFF7E00640A7003751B01EF640B4EBA
:1005A2007003751C01EF640C4E7003751A017B0019
:0C05B2007A007939120A7D309902C29952
:1005BE00D007D006D005D004D003D002D001D00091
:0B05CE00D0D0D082D083D0F0D0E0323B
:03000B00020ABB2B
:030ABB00C2A032A4
:100A9000D3EF9400EE9400400800EF1F70F21E8028
:010AA000EF66
:010AA1002232
:1009B600AF8CEFFEAD8A7C00E42DF50AEC3EF5091E
:1009C600FCAD0AE41201317BC57A207930783E12FB
:0F09D600002612016A8E1D8F1EE4F58CF58A2211
:10097100C2A77F38120AA27F0C120AA27F06120AAE
:10098100A27F01120AA27F80120AA2E4F53C7BFF3A
:100991007A0A791412000EC3E53C9FE49E5011E5DA
:1009A1003C900A1493FF120A701209E9053C80DE9B
:0509B1007FC0020AA254
:1005D90012016A8E468F47AE40AF417C037DE81217
:1005E90003617E007F64CFCDCFCECCCE1203618F65
:1005F90015AE40AF417C007D641203617E007F0A25
:10060900CFCDCFCECCCE1203618F16AE40AF417C99
:10061900007D0A1203618D17E4F548C3E548940388
:10062900748094805012E54824C0FF120AA2120A6D
:10063900651209E9054880E3AE42AF437C037DE8D2
:100649001203617E007F64CFCDCFCECCCE12036181
:100659008F15AE42AF437C007D641203617E007F3B
:100669000ACFCDCFCECCCE1203618F16AE42AF43A7
:100679007C007D0A1203618D17E4F548C3E54894AF
:1006890003748094805012E54824C4FF120AA21210
:100699000A651209E9054880E3AE44AF457C037D4C
:1006A900E81203617E007F64CFCDCFCECCCE12039A
:1006B900618F15AE44AF457C007D641203617E00F5
:1006C9007F0ACFCDCFCECCCE1203618F16AE44AF09
:1006D900457C007D0A1203618D17E4F548C3E5489E
:1006E9009403748094805012E54824C8FF120AA22A
:1006F900120A651209E9054880E3AE46AF477C0353
:100709007DE812030C7E007F64CFCDCFCECCCE1214
:10071900030C8F15AE46AF477C007D6412030C7E37
:10072900007F0ACFCDCFCECCCE12030C8F16AE46AA
:10073900AF477C007D0A12030C8D17E4F548C3E529
:10074900489403748094805012E54824CCFF120A1F
:0B075900A2120A651209E9054880E3BE
:010764002272
:0D0AA200C2A61209E5D2A71209E9C2A722D7
:0B0A650074152548F8E6900A2593FF61
:0D0A7000D2A61209E5D2A71209E9C2A722F9
:0809E500C2A58F807F057E0092
:1009ED00D3EF9400EE940040147D6E7C00ED1D70ED
:0D09FD00011CED4C70F7EF1F70E61E80E34B
:010A0A0022C9
:10002600EC4D6011E8497017ED33EC3304600DE4D4
:10003600FCFFFEFD22E933E8330470F80201D61214
:1000460001A158046009E4CC248150062850090215
:1000560001E02840030201DDC0E0EB4A7044B980AC
:1000660006D0E0FB0201CCEF4E701CBD8008EBFF12
:10007600EAFEE9FD80EBE98DF0A4FEE5F002010F52
:10008600E9CDF9EAFEEBFFEF89F0A4FCE5F0CE89B5
:10009600F0A42EFFE435F0CD89F0A42DFEE435F072
:1000A6008067EF4E7005BD80D780C3EF8BF0A4ACA0
:1000B600F0EE8BF0A42CFCE435F0F8EF8AF0A42CDB
:1000C600E5F038FCE433CB8DF0A42CFCE5F03BF8EE
:1000D600EE8AF0A42CFCE5F038F8E433CF89F0A4DE
:1000E6002CFCE5F038CF3400CE89F0A42FFFE5F0E4
:1000F6003EFEE433C98DF0A42EFEE5F039CD8AF03C
:10010600A42FFFE5F03EFEE43DFD33D0E0FB5007B3
:100116000BBB000F0201E0EC2CFCEF33FFEE33FECD
:06012600ED33FD0201B8FB
:10012C0075F020800E75F010800575F0087D007E4E
:10013C00007F003392D530D503120397EC33401077
:10014C00EF33FFEE33FEED33FDEC33FCD5F0ED2257
:0E015C00E5F0247EA2D513CC92E7CDCEFF2293
:10016A00EDD2E7CD33EC3392D524814006E4FFFE8D
:10017A00FDFC22FCE4CFCECDCC24E0501174FF80EC
:10018A00EDC3CC13CCCD13CDCE13CECF13CF047089
:07019A00F030D5DE020397EF
:1001A100E9D2E7C933E833F892D5EDD2E7CD33ECA4
:0701B10033FC5002B2D5221D
:1001B800EC30E7100FBF000C0EBE00080DBD0004A8
:1001C8000BEB6014A2D5EB13FCED92E7FD2274FF54
:1001D800FCFDFEFF22E480F8A2D574FF13FC7D80AD
:0301E800E480EFC1
:030000000208E50E
:0C08E500787FE4F6D8FD75814802092CEC
:1001EB00E709F608DFFA8046E709F208DFFA803EF6
:1001FB0088828C83E709F0A3DFFA8032E309F608E3
:10020B00DFFA8078E309F208DFFA807088828C834A
:10021B00E309F0A3DFFA806489828A83E0A3F608FE
:10022B00DFFA805889828A83E0A3F208DFFA804CD8
:10023B0080D280FA80C680D4806980F280338010AF
:10024B0080A680EA809A80A880DA80E280CA803318
:10025B0089828A83ECFAE493A3C8C582C8CCC58390
:10026B00CCF0A3C8C582C8CCC583CCDFE9DEE78060
:10027B000D89828A83E493A3F608DFF9ECFAA9F0DF
:10028B00EDFB2289828A83ECFAE0A3C8C582C8CC35
:10029B00C583CCF0A3C8C582C8CCC583CCDFEADE4E
:1002AB00E880DB89828A83E493A3F208DFF980CCB0
:1002BB0088F0EF60010E4E60C388F0ED2402B404A9
:1002CB000050B9F582EB2402B4040050AF23234550
:0602DB00822390023B7338
:1002E100BB010689828A83E0225002E722BBFE021B
:0902F100E32289828A83E493224E
:1002FA00EF8DF0A4A8F0CF8CF0A428CE8DF0A42E18
:02030A00FE22D1
:10030C00BC000BBE0029EF8DF084FFADF022E4CCD5
:10031C00F875F008EF2FFFEE33FEEC33FCEE9DEC9E
:10032C00984005FCEE9DFE0FD5F0E9E4CEFD22EDE4
:10033C00F8F5F0EE8420D21CFEADF075F008EF2F2E
:10034C00FFED33FD4007985006D5F0F222C398FD1F
:05035C000FD5F0EA22BC
:10036100C2D5EC30E709B2D5E4C39DFDE49CFCEEB7
:1003710030E715B2D5E4C39FFFE49EFE12030CC320
:10038100E49DFDE49CFC800312030C30D507C3E41B
:060391009FFFE49EFE2226
:0E039700C3E49FFFE49EFEE49DFDE49CFC2277
:10000E00E4FFFE1202E1600C0FEF70010E09E970C1
:05001E00F20A80EF2250
:1008F100020765E493A3F8E493A34003F68001F2B1
:1009010008DFF48029E493A3F85407240CC8C33307
:10091100C4540F4420C8834004F456800146F6DFD6
:10092100E4800B0102040810204080900A30E47E2C
:10093100019360BCA3FF543F30E509541FFEE493CB
:10094100A360010ECF54C025E060A840B8E493A392
:10095100FAE493A3F8E493A3C8C582C8CAC583CABD
:10096100F0A3C8C582C8CAC583CADFE9DEE780BE75
:010A4B0000AA
:00000001FF
